:020000040800F2
:10000000E00C002039030008533B0008F5370008D6
:10001000513B00089305000813550008000000003C
:10002000000000000000000000000000DF3F0008AA
:1000300095050008000000009D3C0008E13F000815
:100040005303000853030008530300085303000838
:100050005303000853030008530300085303000828
:100060005303000853030008530300085303000818
:100070005303000853030008530300085303000808
:1000800053030008530300085303000853030008F8
:1000900053030008530300085303000853030008E8
:1000A00053030008530300085303000853030008D8
:1000B00053030008530300085303000853030008C8
:1000C00053030008530300085303000853030008B8
:1000D0005303000853030008530300084952000863
:1000E00053030008530300080000000053030008F6
:1000F0005303000853030008530300085303000888
:100100005303000853030008530300085303000877
:100110005303000853030008530300085303000867
:100120005303000853030008530300085303000857
:100130005303000853030008530300085303000847
:1001400000000000000000000000000000000000AF
:100150005303000853030008530300085303000827
:100160005303000853030008530300085303000817
:100170005303000853030008530300080000000065
:1001800053030008530300085303000853030008F7
:1001900053030008530300085303000853030008E7
:1001A00053030008530300085303000853030008D7
:1001B00053030008530300085303000853030008C7
:1001C00053030008530300085303000853030008B7
:1001D00053030008530300085303000853030008A7
:1001E0005303000853030008530300085303000897
:1001F0005303000853030008530300085303000887
:100200005303000853030008530300085303000876
:100210005303000853030008530300085303000866
:1002200053030008530300085303000800000000B4
:1002300053030008530300080000000053030008A4
:100240005303000853030008530300085303000836
:100250005303000853030008530300085303000826
:100260005303000853030008530300085303000816
:100270005303000853030008530300080000000064
:100280005303000853030008530300080000000054
:10029000000000005303000800F002F800F03CF8F2
:1002A0000AA090E8000C82448344AAF10107DA45D1
:1002B00001D100F031F8AFF2090EBAE80F0013F0E7
:1002C000010F18BFFB1A43F001031847F05200005A
:1002D00010530000103A24BF78C878C1FAD85207EA
:1002E00024BF30C830C144BF04680C6070470000B0
:1002F0000023002400250026103A28BF78C1FBD82F
:10030000520728BF30C148BF0B6070471FB505F0CA
:1003100043F91FBD10B510BD00F001F91146FFF7FC
:10032000F5FF05F009F900F01FF903B4FFF7F2FF3C
:1003300003BC00F027F9000009488047094800473E
:10034000FEE7FEE7FEE7FEE7FEE7FEE7FEE7FEE785
:10035000FEE7FEE704480549054A064B70470000E2
:10036000A140000899020008E0060020E00C0020EF
:10037000E0080020E008002053EA020C00F0698049
:100380002DE9F04B4FF00006002B1FBFB3FA83F5A9
:1003900003FA05F424FA05F65E4012BF1643B2FADA
:1003A00082F502FA05F4C5F120051EBF22FA05FC0C
:1003B00044EA0C04203556EA044C4FEA144418BFB2
:1003C000641C4FF000084FF00009904271EB030CE1
:1003D00039D3002919BFB1FA81F701FA07F6B0FA4B
:1003E00080F700FA07F6C7F120071EBF20FA07FCC6
:1003F00046EA0C062037B6FBF4FCA7EB0507103FD6
:1004000007F01F0BCBF120060CFA0BFB2CFA06F6BB
:1004100044BFB3460026202FA4BF5E464FF0000B1A
:100420005BEA060C08BF4FF0010B19EB0B09ABFBA5
:10043000027C48EB0608C01B06FB02CC0BFB03CC7E
:1004400071EB0C01C1E70B46024641464846BDE848
:10045000F08B13B54FF000004FF00001AFF30080B8
:10046000BDE81C40704710B5203AC0F00B80B1E8E1
:100470001850203AA0E81850B1E81850A0E81850D9
:10048000BFF4F5AF5FEA027C24BFB1E81850A0E8E2
:10049000185044BF18C918C0BDE810405FEA827CFC
:1004A00024BF51F8043B40F8043B08BF7047D20713
:1004B00028BF31F8023B48BF11F8012B28BF20F8B4
:1004C000023B48BF00F8012B70474FF0000200B517
:1004D000134694469646203922BFA0E80C50A0E867
:1004E0000C50B1F12001BFF4F7AF090728BFA0E815
:1004F0000C5048BF0CC05DF804EB890028BF40F8E1
:10050000042B08BF704748BF20F8022B11F0804F22
:1005100018BF00F8012B7047704770477047754649
:1005200000F02CF8AE4605006946534620F007005F
:10053000854618B020B5FFF70DFFBDE820404FF00D
:1005400000064FF000074FF000084FF0000B21F0BD
:100550000701AC46ACE8C009ACE8C009ACE8C0098A
:10056000ACE8C0098D46704710B50446AFF3008073
:100570002046BDE81040FFF7D8BE00000048704795
:100580008006002001491820ABBEFEE726000200CD
:100590007047FEE7704770B5A2B0064600244FF4DE
:1005A000C36001258DF80F5002238DF81D406903AB
:1005B0008DF80E5009948DF81F400D9020208DF875
:1005C00004508DF8325042028DF8605006914FF081
:1005D00040518DF8384002948DF861408DF81C40F0
:1005E0008DF828408DF862408DF80C400B948DF802
:1005F0001E500F948DF8115012948DF840408DF8D4
:1006000031408DF8124014948DF8564017903046C2
:1006100016938DF8205005928DF854408DF8304097
:100620008DF81050009169468DF80D408DF85540B9
:1006300011948DF84C5000F075F81B9568058DF8F5
:1006400071404FF406718DF8685019948DF8804010
:100650008DF870401F908DF878401D9030468DF8D1
:100660008140219119A900F003F822B070BD00006B
:10067000F0B5026847F6020E274E4DF2010702F56B
:100680008052264DD1F800C01368254C23EA0E0392
:1006900043EA0C0313600B79026891F80CE002F551
:1006A0008052D1F808C01B0343EACE3343EA0C035F
:1006B000D2F804C02CEA070C4CEA030CC2F804C0C0
:1006C00002684F7B02F580520B6A43EA0747D2F873
:1006D000003133403B43C2F8003102680B7D02F524
:1006E000805291F81DC00F69D2F804611B0143EAE2
:1006F0000C332E403B431E43C2F8046100680B7F5D
:1007000000F580508A69D0F8081142EAC37221408E
:100710001143C0F80811F0BD00C0FEFFEFEFC0FFAD
:10072000FFFFC07FF0B50B790C7B0F688A68DB0692
:100730004D7B43EAC4533A438E7B1A43CF7B91F8F7
:1007400010C042EA855242EA4652BCF1000F42EA2A
:1007500007537CD000224C7C002C43EAC24278D064
:1007600000238E7C0D7F42EA43428F7FD1E905341E
:1007700042EA06424E7F1A43224342EA0532002FE4
:1007800042EAC62466D00022CD7F91F8203044EAA8
:100790008222002B42EA45227ED0002504684B6A63
:1007A00042EA052291F82870464D1A43CE6A236822
:1007B00042EA071232432B401343236091F83C2056
:1007C00091F8383091F8305091F83140520642EAB1
:1007D000036291F8326042EA854242EA4444BEB381
:1007E00000220368384E4F6B44EA02425C683A4389
:1007F00040F20F15344014435C60036891F8406088
:100800004C6CDA6844EA0624AA432243DA6091F881
:1008100054300A6D91F84C4042EA4302ECB3002494
:100820000368B1F848504FF60D76E7011C6F47EAB0
:1008300005452A43344014431C67026891F856303A
:1008400091F8555052F8904F43EA450303E02BE0EE
:1008500032E02BE02CE024F003041C431460026817
:100860008C6DD2F8003D23F072032343C2F8003DA3
:1008700091F86020CC6D1AB35FF00003026891F824
:10088000615091F8621044EA8310D2F8303D2C0197
:1008900044EAC101084301E00CE00FE023F07B01D2
:1008A0000143C2F8301DF0BD012254E7012358E78F
:1008B000012269E7012571E7012292E70124AFE7F0
:1008C0000123DBE7838004000080F8C0704700004C
:1008D0002DE9F05F28B190F83510022904D080216D
:1008E00041650120BDE8F09F904C904B0168183C99
:1008F00018338E4ADFF83C92A1428D4CDFF838E283
:100900008E4FDFF83CB2DFF83CA28F4D8F4E31D0D6
:1009100091422FD099422DD0A1422BD0494529D0C8
:10092000714527D0B94225D0DFF810C20CF1180C60
:1009300061451FD0DFF808C2ACF1600C614519D0E9
:10094000DFF8FCC1ACF1480C614513D0DFF8F0C111
:10095000ACF1300C61450DD0DFF8E4C1ACF1180CFE
:10096000614507D0594505D0514503D0A94201D072
:10097000B1422CD1DFF8B4C14FF0040880F83580C3
:10098000ACF1180C61451DD091421BD0994219D091
:10099000A14217D0494515D0714513D0B94211D0A5
:1009A0006648183081420DD065486038814209D0D0
:1009B00063484838814205D061483038814201D0CF
:1009C0005F481838086820F001000860ABE0D1F8F3
:1009D00000C02CF00E08DFF854C1C1F80080ACF163
:1009E000180C0168614527D0914225D0994223D047
:1009F000A14221D049451FD071451DD0B9421BD01D
:100A0000DFF838C10CF1180C614515D0DFF830C1A2
:100A1000ACF1600C61450FD0DFF824C1ACF1480C9B
:100A2000614509D0DFF818C1ACF1300C614503D045
:100A3000DFF80CC1ACF1180CD1F800C02CF0010C9F
:100A4000C1F800C0DFF8E4804FF0010C0168A8F1A4
:100A50001808414546D0914244D0994242D0A14223
:100A600040D049453ED071453CD0B9423AD0334A96
:100A70001832914236D0324A603A914232D0304AEE
:100A8000483A91422ED02E4A303A91422AD02C4AEE
:100A9000183A914226D0594524D0514522D0A94236
:100AA00020D0B1421ED02A4A91421BD0284A14328B
:100AB000914217D0264A2832914213D0244A3C3220
:100AC00091420FD0224A503291420BD0204A6432D8
:100AD000914207D01E4A7832914203D01C4A8C3290
:100AE000914218D1016E0A6822F480720A6090F86F
:100AF0005C20816D02F01F020CFA02F24A60D0E91C
:100B000019124A60C16E31B10A6822F480720A601B
:100B1000D0E91C124A600022016D80F8342080F870
:100B200035C001B188470020DCE600002800024003
:100B3000580002407000024088000240A0000240BD
:100B40007004024088040240A0040240B80402403D
:100B50000854025870B5044600F0A0FA0546601C1F
:100B600002D004480078044400F098FA401BA042E8
:100B7000FAD370BD08000020F8B5040002D0606D03
:100B800010B104E00120F8BD204600F0F7F8232062
:100B900060657048016841F002010160006800F082
:100BA00002000090207A08B14FF4000002F016FB1A
:100BB000206800F58050016841F00101016000F0FB
:100BC0006DFAE02605464FF4FA7706E000F066FA83
:100BD000401BB84201D9042049E0206800F580504C
:100BE0000068C007F2D12068D0F8000220F47065D8
:100BF00001F0D6FA584A594902448A4202D245F4D1
:100C0000007516E0564A574902448A4202D245F41A
:100C100040750EE05449554A0144914209D3544964
:100C2000544A0844904202D245F4807501E045F4EC
:100C300080652068C0F8005201F0B2FA4E4A21687F
:100C4000B0FBF2F0401EC1F8DC002046FFF7A3FC29
:100C5000206800F58050D0F8001121F4E01141F433
:100C60000021C0F800116169880703D00120E06508
:100C7000666587E7206847F6FE7300F58050D0F878
:100C800008219A4342EA4101C0F8081100210846B0
:100C9000E26800EB400504EB800302EBC502116043
:100CA00051609160D160401C04289A61F0D3A16228
:100CB0000323206800F58050C0F82C312068E268DA
:100CC00000F58050C0F814212068E26800F58050DB
:100CD000C0F820215FF00002206902EB420604EB1D
:100CE000820500EBC600016041608160C160016166
:100CF0004161521C042AE862EED3E163216461641D
:100D0000E164A164206800F58050C0F830312068AB
:100D1000226900F58050C0F81C212268206902F584
:100D2000805200F5D860C2F82801D4E900208088FC
:100D3000C2F8000360682368D0F8015002781020E0
:100D400042EA0522C3F80423E1656065A06500203E
:100D5000F8BD0000F444025800D3CEFEC0E1E40028
:100D600040F1E9FD40787D0100796CFC005A620297
:100D7000001F0AFA80F0FA0240420F0070B586B0F8
:100D8000044614216846FFF7A0FB364920688842D4
:100D900066D13548016841F400410160016801F401
:100DA00000410591016841F480310160016801F45E
:100DB00080310591016841F400310160006800F460
:100DC0000030059028480830016841F004010160B6
:100DD000016801F004010591016841F00101016021
:100DE000016801F001010591016841F00201016013
:100DF000016801F002010591016841F040010160C4
:100E0000006800240B26694600F04000059032205F
:100E1000009002251548CDE90154CDE9034600F0C4
:100E20002DF886200090CDE9015411486946CDE99E
:100E3000034600F023F828030090CDE901540D4843
:100E40006946CDE9034600F019F84FF420500090B0
:100E5000CDE9015408486946CDE9034600F00EF893
:100E600006B070BD00800240D84402580008025805
:100E70000000025800040258001802582DE9F84FEB
:100E8000714C00234FF0B04E4FF001094FF0030BAF
:100E90004FF00F0AD0E000BF09FA03F812EA080287
:100EA00074D04D68022D01D0122D0FD1DD085F07DF
:100EB00000EB850500950E692D6AFF0E0AFA07FC06
:100EC000BE4025EA0C052E43009D2E625D000F7981
:100ED00006680BFA05FC07F0030726EA0C06AF408C
:100EE000374307604E68012E05D0022E03D0112E25
:100EF00001D0122E0FD18668CF6826EA0C06AF40CB
:100F00003743876046680F7926EA0806C7F300175B
:100F10009F4037434760C6688F6826EA0C06AF409B
:100F20003743C7604D68ED0030D5484D2E6846F018
:100F300002062E602D6823F0030606F1B04605F088
:100F4000020500959D072F0FD6F80854DFF80081A1
:100F50000AFA07FC404525EA0C0502D14FF0000CC7
:100F600041E0DFF8F0C0604502D14FF0010C3AE0FB
:100F7000DFF8E4C0604502D14FF0020C33E0DFF847
:100F8000DCC0604503D14FF0030C2CE053E0DFF8E8
:100F9000D0C0604502D14FF0040C24E0DFF8C4C09B
:100FA000604502D14FF0050C1DE0DFF8BCC0604584
:100FB00002D14FF0060C16E0DFF8B0C0604502D158
:100FC0004FF0070C0FE0DFF8A8C0604502D14FF0EA
:100FD000080C08E0DFF89CC0604502D14FF0090C16
:100FE00001E04FF00A0C0CFA07FC4CEA050CC6F8BD
:100FF00008C425684E6825EA0205F60300D51543A6
:10100000256065684E6825EA0205B60300D51543DC
:1010100065604F687546DEF80060FF0226EA02064A
:1010200000D516432E604F686E68BF0226EA02069E
:1010300000D516436E605B1C0A6832FA03F57FF434
:101040002BAFBDE8F88F000080000058F444025830
:10105000000002580004025800080258000C025810
:10106000001002580014025800180258001C0258C0
:101070000020025800240258426931EA020200D1DD
:101080000904816170470AB1816170470904FBE777
:1010900001480068000C70470010005C014880683F
:1010A000704700000800002002488168027811445F
:1010B0008160704708000020032010B500F084F81C
:1010C00001F0A8F80E490F4A0F4B0C68C4F3032433
:1010D000145D04F01F04E0401860096801F00F017E
:1010E000515C01F01F01C84008490860002000F071
:1010F0000FF808B1012010BD00F02AF8002010BD43
:1011000018440258AC5500081400002018000020B4
:1011100070B50D4D04462878A0B14FF47A71B1FB3B
:10112000F0F00A490968B1FBF0F002F061F848B943
:10113000102C07D200222146501E00F025F8002076
:101140006C6070BD012070BD0800002014000020FC
:10115000054808B5016841F002010160006800F02F
:101160000200009008BD0000F4440258002809DB8A
:10117000410900F01F028900012001F1E0219040A7
:10118000C1F80001704700000E4BF0B41B680D461B
:10119000C3F30223C3F10706042E00D90426191D48
:1011A000072901D2002300E0DB1E012404FA06F126
:1011B0009C40491E2940641E994014402143F0BCC4
:1011C00004F0A8B90CED00E0064900F0070210B5E4
:1011D0004FF6FF040868044B204040EA0220184301
:1011E000086010BD0CED00E00000FA050168012365
:1011F000C0F8FC33002280F8F4238869044A40F0E8
:1012000000608861486D1043486500207047000009
:10121000030000102DE9F04104008AB005D094F8D5
:10122000BD030025266820B108E001200AB0BDE812
:10123000F081204684F8BC5300F066F8032084F85F
:10124000BD03F06BC00500D42561206804F022F9CD
:1012500004F11001684628228846FFF704F994E853
:101260000F0003F0F7FF0227D8BB2068002104F02D
:1012700039F90020012610E0C0EBC001421C04EB4C
:10128000810181F83D6081F83F504D648D640D65AA
:1012900081F83C00A1F84200D0B261688142EBD8ED
:1012A000002011E0C0EBC001421C04EB810181F879
:1012B000FD5181F8FF51C1F80452C1F80852C1F83C
:1012C000105281F8FC01D0B261688142EAD828222C
:1012D00041466846FFF7C7F894E80F0004F01EF88F
:1012E00010B184F8BD73A0E7606A84F8385084F8C0
:1012F000BD63012802D12046FFF778FF206804F083
:1013000001F8002092E7000030B587B004461421B0
:101310006846FFF7DAF818492068884229D117484B
:10132000016841F001010160006800240221144DB0
:1013300000F0010005904FF4C8500A228DE8130018
:10134000CDE9034269462846FFF798FD4FF4007047
:101350006946CDE9000428460294FFF78FFD07484F
:101360000838016841F000610160006800F0006029
:10137000059007B030BD000000000840E04402586E
:1013800000000258134970B50A68D243520705D5C8
:10139000096801F00701814213D118E00A6822F0C0
:1013A000070202430A60FFF779FE0A4D4FF47A768E
:1013B0000446083D07E000BFFFF770FE001BB04287
:1013C00001D9012070BD2868C0438004F4D40020F6
:1013D00070BD00000C4802580248016841F080715D
:1013E000016070470C48025810B500F013FF064A20
:1013F00006491268064BC2F303229A5C02F01F02F0
:10140000D040086010BD00001844025814000020AD
:10141000AC55000810B500F0C3FE05490968054A3F
:10142000C1F30211515C01F01F01C84010BD000062
:1014300020440258AC550008494930B5484C0B1DB2
:101440000A68143409681D68246802F00303C5F3B0
:101450000012C1F30531C4F3CC04002914FB02F2DD
:1014600000EE102AF8EE400A75D03F4A9FED3D1A73
:10147000B7EE000A6BB1DFED3D1A012B01D0022B54
:1014800064D002EE101A1168F8EE422A81EEA22A08
:1014900021E0334C283C23689B0612D5344B24684A
:1014A00001EE901A1168C4F3C104F8EE612AE3401A
:1014B00001EE903AC1F30801F8EE611A81EEA22A1A
:1014C0000BE001EE901ADFED2B2A00BFF8EE611A57
:1014D000116882EEA12AC1F3080101EE901A116889
:1014E000F8EE611A40EE811A71EE800A62EE200A6F
:1014F000C1F3462101EE101AB8EE411A31EE001A7E
:10150000C0EE811ABCEEE11A80ED001A1168C1F339
:10151000064101EE101AB8EE411A31EE001AC0EE83
:10152000811ABCEEE11A80ED011A1168C1F306615F
:1015300001EE101AB8EE411A31EE000A80EE801A60
:10154000BCEEC10A80ED020A30BD04E001EE901A43
:10155000DFED092ABAE70021016041608160F3E70D
:101560002844025800000039384402580024744AC4
:101570000090D0030024744C0024F44A494930B54B
:10158000484C0B1D0A681C3409681D68246802F069
:101590000303C5F30022C1F30551C4F3CC040029B1
:1015A00014FB02F200EE102AF8EE400A75D03F4A12
:1015B0009FED3D1AB7EE000A6BB1DFED3D1A012B2E
:1015C00001D0022B64D002EE101A1168F8EE422A04
:1015D00081EEA22A21E0334C283C23689B0612D5D9
:1015E000344B246801EE901A1168C4F3C104F8EE7C
:1015F000612AE34001EE903AC1F30801F8EE611A66
:1016000081EEA22A0BE001EE901ADFED2B2A00BF3B
:10161000F8EE611A116882EEA12AC1F3080101EE09
:10162000901A1168F8EE611A40EE811A71EE800A84
:1016300062EE200AC1F3462101EE101AB8EE411AFB
:1016400031EE001AC0EE811ABCEEE11A80ED001AEC
:101650001168C1F3064101EE101AB8EE411A31EEDD
:10166000001AC0EE811ABCEEE11A80ED011A116871
:10167000C1F3066101EE101AB8EE411A31EE000A0C
:1016800080EE801ABCEEC10A80ED020A30BD04E093
:1016900001EE901ADFED092ABAE7002101604160EE
:1016A0008160F3E7284402580000003940440258A2
:1016B0000024744A0090D0030024744C0024F44A9F
:1016C0002DE9FC5F044650F8241B002500902E46AF
:1016D0000801FE4FDFF8F8831DD5606E50B1B0F5FC
:1016E000801F0CD0B0F5001F0ED0B0F5401F1DD0EC
:1016F00001250FE0386840F40030386016E0022120
:10170000201D02F0CDFA03E00098022102F058FB00
:1017100005000BD02E462088C00523D5606D052816
:101720001ED2DFE800F00C11161B1B00626ED8F809
:10173000001021F440111143C8F80010EBE738689D
:1017400040F40030386009E00021201D02F0A8FAC2
:1017500003E00098002102F033FB05466DB100E084
:1017600001252E462088800528D5A06D80281ED012
:101770000CDC90B140280ED114E0626DD8F8001056
:1017800021F007011143C8F80010EBE7C02813D07F
:10179000B0F5807F10D001250FE0386840F40030AC
:1017A000386009E00021201D02F07AFA03E0009879
:1017B000002102F005FB054695B12E462088DFF892
:1017C0001093400509F108092CD5D4F8A400B0F510
:1017D000800F20D00DDCA0B1B0F5001F0FD115E0B7
:1017E000A26DD8F8001021F4E0711143C8F8001080
:1017F000E4E7B0F5C00F13D0B0F5000F10D001250D
:101800000FE0386840F40030386009E00021201D06
:1018100002F046FA03E00098002102F0D1FA0546F2
:1018200075B12E46208800052DD5D4F8A800B0F15A
:10183000007F21D00EDCA8B1B0F1807F10D116E07E
:10184000D4F8A420D9F8001021F460011143C9F89C
:101850000010E7E7B0F1407F13D0B0F1806F10D0F7
:1018600001250FE0386840F40030386009E00021BD
:10187000201D02F015FA03E00098002102F0A0FA02
:1018800005468DB12E462068DFF844B28001ABF1E9
:10189000040B1FD5A06CD8B110280FD0202812D06F
:1018A000302815D0012514E0D4F8A820D9F800106C
:1018B00021F0E0611143C9F80010E4E7386840F412
:1018C0000030386004E00221201D02F0E9F90546ED
:1018D0006DB12E462088C0042BD5E06DB0F5005FB9
:1018E00020D00DDCA0B1B0F5805F0FD115E0A26C67
:1018F000DBF8001021F030011143CBF80010E9E7CC
:10190000B0F5405F13D0B0F5804F10D001250FE047
:10191000386840F40030386009E00021201D02F0F2
:10192000BFF903E00098002102F04AFA054685B1AC
:101930002E462088800429D5206EB0F5403F23D064
:1019400010DC08B3B0F5803F14D0B0F5003F0FD1E4
:1019500015E0E26DD8F8001021F4E0411143C8F819
:101960000010E6E7B0F5802F0ED0B0F5A02F0BD019
:1019700001250AE00121201D02F092F903E0009800
:10198000012102F01DFA05468DB12E462088400443
:101990002AD5D4F8AC00B0F1405F23D010DC08B3F6
:1019A000B0F1805F14D0B0F1005F0FD115E0226E6E
:1019B000D8F8001021F4E0211143C8F80010E5E741
:1019C000B0F1804F0ED0B0F1A04F0BD001250AE04E
:1019D0000121201D02F064F903E00098012102F0CA
:1019E000EFF905466DB12E46208800041FD5E06E44
:1019F000D8B1B0F1805F0ED0B0F1005F10D00125FA
:101A000014E0D4F8AC20D9F8001021F0E0411143E3
:101A1000C9F80010E8E7386840F40030386004E0A6
:101A20000121201D02F03CF905466DB12E462068CB
:101A3000C0011ED5606CD0B101280ED0022811D093
:101A4000032814D0012513E0E26ED8F8001021F02D
:101A500040511143C8F80010E9E7386840F40030FD
:101A6000386004E00221201D02F01AF9054665B134
:101A70002E462068400257D51648016841F480710F
:101A80000160FFF70BFB82460EE0626CDBF8001092
:101A900021F003011143CBF80010EAE7FFF7FEFA4B
:101AA000A0EB0A0064283DD80A480068C005F5D5B7
:101AB0007DBBDFF81CA0B4F8B0100AF1200ADAF8F8
:101AC000000001F4407100F4407005E02C4402581D
:101AD0005044025800480258884211D0DAF80010E9
:101AE000DAF8002021F4407142F48032CAF8002074
:101AF000DAF8002022F48032CAF80020CAF8001078
:101B0000D4F8B000B0F5807F21D1FFF7C7FA01907B
:101B100019E008E0FFF7C2FA0199411A41F2883052
:101B2000814210D903252E462078DFF80CA4C00787
:101B30003DD0A06F182838D026DC80B3082829D0E3
:101B4000102825D12CE0DAF800008007E2D5D4F87F
:101B5000B010C1F301200328F8480DD0016821F42A
:101B60007C510160B4F8B020DAF80010C2F30B0227
:101B70001143CAF80010D7E7F14A036802EA1112CC
:101B800023F47C511143ECE720280ED028280CD0F8
:101B900001250BE00121201D02F082F804E004E0A1
:101BA0000098012102F00CF905465DB12E4620781F
:101BB00080071ED5606F062819D2DFE800F0160CEA
:101BC00011161616A26FDAF8001021F03801114331
:101BD000CAF80010EBE70121201D02F061F803E0D4
:101BE0000098012102F0ECF8054675B100E00125EE
:101BF0002E46207840071FD5D4F89000062819D229
:101C0000DFE800F0160C11161616626FDAF80010F5
:101C100021F007011143CAF80010EAE70121201D55
:101C200002F03EF803E00098012102F0C9F80546F1
:101C30009DB100E001252E46207880062BD5D4F8F2
:101C40008C00B0F1405F24D011DC10B3B0F1805FA4
:101C500015D0B0F1005F10D116E0D4F89020D9F87B
:101C6000001021F007011143C9F80010E4E7B0F1BA
:101C7000804F0ED0B0F1A04F0BD001250AE000211B
:101C8000201D02F00DF803E00098022102F098F800
:101C900005468DB12E46207840062BD5D4F8980005
:101CA000B0F5406F24D011DC10B3B0F5806F15D0C3
:101CB000B0F5006F10D116E0D4F88C20DAF80010DF
:101CC00021F0E0411143CAF80010E4E7B0F5805F6D
:101CD0000ED0B0F5A05F0BD001250AE00021201D39
:101CE00001F0DEFF03E00098022102F069F80546EA
:101CF0008DB12E46207800062BD5D4F89C00B0F587
:101D0000C04F24D011DC10B3B0F5005F15D0B0F592
:101D1000804F10D116E0D4F89820D9F8001021F4A3
:101D2000E0511143C9F80010E4E7B0F5004F0ED0C0
:101D3000B0F5204F0BD001250AE00021201D01F055
:101D4000AFFF03E00098022102F03AF805464DB1DA
:101D50002E46207800071ED5D4F88000B0F5805FAD
:101D60000AD00FE0D4F89C20D9F8001021F460418B
:101D70001143C9F80010ECE70098022102F020F8A6
:101D800000B10126D4F88020DAF8001021F4405187
:101D90001143CAF800102078C00613D5D4F8940077
:101DA000B0F5807F05D10098022102F009F800B15A
:101DB0000126D4F89420D9F8001021F44071114381
:101DC000C9F800102068000316D5D4F8A00038B177
:101DD000B0F5803F09D0B0F5003F0BD001250AE0F7
:101DE0000021201D01F05CFF03E00098022101F0BA
:101DF000E7FF054685B12E462068400322D5D4F87A
:101E00008400B0F5801F11D0B0F5001F13D0B0F5DD
:101E1000401F15D0012514E0D4F8A020D9F80010F7
:101E200021F440311143C9F80010E5E7386840F467
:101E30000030386004E00098012101F0C1FF054640
:101E400055B12E462068C0031CD5E06C70B1B0F5CA
:101E5000803F10D0012514E0D4F88420DAF8001077
:101E600021F440111143CAF80010EBE7386840F440
:101E70000030386004E00221201D01F011FF05460A
:101E8000CDB12E462068800005D50098022101F0D2
:101E900097FF00B10126206880031BD5E06FB8B121
:101EA000B0F5807F10D0B0F5007F11D0B0F5407F45
:101EB0000ED001250DE0E26CDBF8001021F480313A
:101EC0001143CBF80010DDE7386840F4003038608B
:101ED000C5B32E462068C00207D5226FD8F800107F
:101EE00021F000411143C8F800102068800207D596
:101EF000A26ED8F8001021F080711143C8F80010CC
:101F00002068400009D50D48016821F400410160B6
:101F10000168D4F8B820114301602068002807DA6E
:101F2000226DDBF8001021F040511143CBF8001076
:101F300096B10120BDE8FC9F544402581044025859
:101F4000CFFFFF00FFE7E26FDAF8001021F44071E5
:101F50001143CAF80010BDE70020EBE72DE9F05F60
:101F600004000F467ED0DFF82482D8F8000000F08D
:101F70000F00B8420CD2D8F8001021F00F013943FD
:101F8000C8F80010D8F8000000F00F00B84269D17E
:101F900020787F4D40070AD52069296801F070013B
:101FA000884204D9296821F0700101432960207812
:101FB000774E361D00070AD56069316801F070015F
:101FC000884204D9316821F07001014331602078E2
:101FD000C0060AD5A069316801F4E061884204D9DD
:101FE000316821F4E061014331602078DFF8A0B16D
:101FF00080060BF1080B0CD5E1695846DBF8002090
:1020000002F07002914204D9026822F070020A4381
:102010000260207880070AD5E068296801F00F0186
:10202000884204D9296821F00F01014329602078F2
:10203000C0073ED05649A2682868183920F470605D
:10204000104328606068022818D0032819D0096856
:10205000012819D0490700294ADADFF834A1AAF18A
:10206000080A00E044E0DAF8002022F00702024308
:10207000CAF80020FFF712F8814612E009688903C8
:10208000E9E709688901E6E7C905E4E7FFF706F82B
:10209000A0EB090141F28830814202D90320BDE85A
:1020A000F09F6168DAF8000000F03800B0EBC10F73
:1020B000ECD1207880070AD5E068296801F00F018B
:1020C000884204D2296821F00F0101432960D8F821
:1020D0000010404601F00F01B9420BD9016821F010
:1020E0000F0139430160006800F00F00B84201D0D1
:1020F0000120D4E7207840070AD52069296801F03B
:102100007001884204D2296821F0700101432960DE
:10211000207800070AD56069316801F070018842B3
:1021200004D2316821F07001014331602078C0068B
:102130000AD5A069316801F4E061884204D23168AF
:1021400021F4E06101433160207880060CD5E1691B
:102150005846DBF8002002F07002914204D2026877
:1021600022F070020A43026000F054F82968094A1C
:10217000C1F30321515C01F01F01C840064908600A
:1021800006480068BDE8F05FFEF7C2BF00200052BD
:1021900018440258AC550008140000200C00002020
:1021A00010B5FFF721F9064A06491268064B02F0FE
:1021B0000F029A5C02F01F02D040086010BD0000C0
:1021C0001844025818000020AC55000810B5FFF75D
:1021D000E7FF05490968054AC1F30211515C01F0A6
:1021E0001F01C84010BD00001C440258AC55000837
:1021F00010B5FFF7D5FF05490968054AC1F302216B
:10220000515C01F01F01C84010BD00001C44025881
:10221000AC550008454970B545480968434B103B2B
:1022200011F0380208D00111082A03D0102A0BD06F
:10223000182A0BD0084670BD19688906FBD51968A5
:10224000C1F3C101C84070BD3A4870BD3749374D30
:1022500018310C1D24350A68096826682D6802F0BB
:10226000030406F00102C1F30511C5F3CC0515FB0B
:1022700002F200EE102AB8EE400AE9B32F4ADFED71
:102280002E0AB7EE001A6CB1DFED2D1A012C01D029
:10229000022C43D002EE101A1068F8EE422A81EEAA
:1022A000A22A1EE01C68A40611D51B6801EE901A34
:1022B0001168C3F3C103F8EE612AD84001EE900A19
:1022C000C1F30800F8EE611A81EEA22A0BE001EEDC
:1022D000901ADFED1C2A00BFF8EE611A106882EE3A
:1022E000A12AC0F3080001EE900AF8EE611A40EE50
:1022F000201A31EE810A00E015E022EE000A106893
:10230000C0F34620401C00EE900AF8EE600A80EE12
:10231000201ABCEEC10A10EE100A70BD01EE901A30
:10232000DFED092AD8E7002070BD000010440258F4
:102330000090D00300127A000000003930440258A7
:102340000024744A0024744C0024F44A2DE9F05F00
:1023500004007CD0FF4F2078FE4D1837DFF8F4934F
:10236000103DC00748D0D9F80000396800F03800A7
:10237000102815D0182803D101F0030002280FD02F
:102380006068B0F5803F12D010B1B0F5A02F18D022
:10239000286820F480302860286820F4802009E034
:1023A0002868800328D560680028D2D024E02868F7
:1023B00040F480302860606888B1FEF76FFE064602
:1023C00009E0286840F480202860F0E7FEF766FE08
:1023D000801B64287ED828688003F7D50CE0FEF7C0
:1023E0005DFE064605E000BFFEF758FE801B642830
:1023F000F0D828688003F7D4207841F20308D54E3E
:102400000C3E80074BD5D9F80000396810F0380031
:102410000ED0182801D188070AD0E06868B329686F
:1024200021F0190101432960FEF738FE824619E0C8
:102430002868400702D5E06800288AD0FEF728FE09
:10244000404513D82069316821F47C3100E0BEE0BA
:1024500041EA0030306022E0FEF720FEA0EB0A00E7
:102460000228B7D828684007F6D5E7E7207C31680E
:1024700021F0FE4141EA0060ECE7286820F001000D
:102480002860FEF70BFE824606E000BFFEF706FE60
:10249000A0EB0A0002289DD828684007F6D42078CF
:1024A000C00659D5D9F80000DFF8A8B2396800F0A5
:1024B0003800ABF1040B082812D0182803D101F022
:1024C000030001280CD0E0690028286834D040F0CF
:1024D000800000E0DCE02860FEF7E0FD824623E0BB
:1024E0002868C00523D5E069802870D11FE000BFAF
:1024F00094F82000316821F0F84141EA80603060B2
:102500002AE000BF94F82010DBF8002022F07C5273
:1025100042EA0161CBF800101EE000BFFEF7BEFDED
:10252000A0EB0A0002289CD82868C005F6D5FEF763
:10253000AFFD4045E6D8DBE720F080002860FEF7DD
:10254000ADFD064605E000BFFEF7A8FD801B022892
:1025500087D82868C005F7D42078000729D57D489A
:102560006169643000298046016811D041F00101A1
:102570000160FEF793FD064605E000BFFEF78EFD05
:10258000801B022887D8D8F800008007F6D510E015
:1025900021F001010160FEF781FD064605E000BF64
:1025A000FEF77CFD801B022872D8D8F80000800757
:1025B000F6D42078800623D5A0690028286810D09A
:1025C00040F480502860FEF769FD064605E02EE1E4
:1025D000FEF764FD801B02285AD828688004F7D5CE
:1025E0000EE020F480502860FEF758FD064604E017
:1025F000FEF754FD801B02284AD828688004F7D4CF
:10260000207840074FD5DFF85081D8F8001041F40A
:102610008071C8F80010FEF741FD064605E000BFD6
:10262000FEF73CFD801B642832D8D8F80000C005B6
:10263000F6D5484EA068603601280AD008B10528B2
:1026400013D0306820F001003060306820F00400C2
:1026500002E0306840F001003060A06841F2883A42
:1026600090B1FEF71BFD80460AE0306840F00400A0
:102670003060EEE7FEF712FDA0EB0801514507D8E8
:1026800030688007F6D50EE0FEF708FD804607E0CB
:1026900084E000BFFEF702FDA0EB080151457DD8A4
:1026A00030688007F6D4606AF0B3DFF8A880D9F804
:1026B000001008F12008C1F3C20103296FD00228DD
:1026C000286820F08070286003D0FEF7E7FC0446FD
:1026D00082E0FEF7E3FC064605E000BFFEF7DEFC05
:1026E000801B022875D828688001F7D4E26A40F27E
:1026F000F331386854F8283F884340EA0210184301
:102700003860217B4FF4FE0C22894FF0FE47208A6F
:102710004902267D521E401EA1F5007189B20CEAC5
:102720000040C2F3080200E083E01143761E01433B
:10273000084807EA06621143064A1C30C8F8001030
:102740002432016821F00101016011684FF6F8762A
:10275000B14303E01044025800480258236A41EA9A
:10276000C30111600168A26921F00C0111430160ED
:102770000168E26921F0020111430160016841F43E
:1027800080310160016841F400310160016841F469
:1027900080210160016841F0010101E019E01FE0C2
:1027A0000160286840F080702860FEF777FC0446DE
:1027B00005E000BFFEF772FC001B022809D828685C
:1027C0008001F7D535E000BFFEF768FC001B02284A
:1027D00002D90320BDE8F09F28688001F4D428E0E6
:1027E00039680128D8F8000021D0A26A01F003035B
:1027F00093421CD1E26AC1F305118A4217D1216BC1
:10280000C0F30802491E8A4211D1616BC0F346220F
:10281000491E91420BD1A16BC0F30642491E914261
:1028200005D1E16BC0F30660491E814201D0012051
:10283000D0E70020CEE700002DE9F047040029D0C2
:102840004A4A4FF000092068494B4A4D9042C4F86B
:10285000289006D0984204D0A84202D0E1680F29FF
:1028600018D8E1684FF0010AE76B0831C9080AEB94
:1028700057167143904205D0984203D0A84201D028
:10288000082907D8904203D0984201D0A84204D129
:10289000102902D90120BDE8F08794F8810020B901
:1028A000204684F8809000F067F8022084F88100C8
:1028B0002068016821F001010160A069B0F1806F1A
:1028C0000AD16068B0F5800F06D1A06B20B92068EE
:1028D000016841F480510160A56AE0692368E16BF9
:1028E0002843E268084310439860D4E90D02D4E914
:1028F00005C1636A25691843D4F820800A43266815
:1029000010432843A56DD4E90172D4E9123140EA9D
:102910000C0040EA0800384308431043184328439A
:10292000F060606868B92068816821F4C05141F4A2
:10293000006181602068816821F4C06141F4806198
:1029400081602068016D21F001010165606840022D
:1029500006D52068626DC16821F000411143C16055
:10296000C4F8849084F881A0002094E700300140EE
:1029700000380040003C004070B586B00446142189
:102980006846FDF7A2FD204A0023204E022025685C
:10299000103A1D490524B54216D10D6845F400557D
:1029A0000D60096801F400510591116841F01001B2
:1029B0001160116801F01001059164210091CDE9C9
:1029C00001031348694619E0124EB5421AD10D6849
:1029D00045F480150D60096801F4801105911168B6
:1029E00041F020011160116801F0200105914FF4C0
:1029F00060710091CDE9010307486946CDE90334D0
:102A0000FEF73CFA06B070BDF044025800340140B5
:102A10000010025800500140001402582DE9FF5FD9
:102A2000044616460F461D4600214FF0040BD4E91C
:102A30000002009130300290B2F5800F01D1A06801
:102A400088B194F88000012819D04FF0010984F86A
:102A50008090FEF723FB94F8811082460020012924
:102A60000FD0022126E084F881B03A461146204674
:102A70000093334600F014FA04B0BDE8F09F022042
:102A8000FAE7B7B1AEB1A26880466766A4F868609D
:102A900084F881B0C4F88400A4F86A60E065A4F802
:102AA0006000A4F86200B2F5C02F2067606705D00F
:102AB00009E0012184F880000846DDE7206801680C
:102AC00021F400610160206841686FF30F01314318
:102AD00041602068016841F0010101606068B0F563
:102AE000800F04D12068016841F400710160E06842
:102AF0000F282ED948F20806B4F86A00002859D0E9
:102B00002068416931420BD0006B616E0860606ED5
:102B1000001D6066B4F86A00401EA4F86A00EBE786
:102B2000FEF7BCFAA0EB0A00A84202D3681CE3D06F
:102B300001E0002DE0D1204601F0D2F9D4F8842044
:102B400084F8808042F48071C4F8841084F8819005
:102B500079E007282AD868E02068416911F4604FBD
:102B600019D04169090409D5006B616E0860606E77
:102B7000001D6066B4F86A00801E09E002980088B3
:102B8000616E0880606E801C6066B4F86A00401E4A
:102B9000A4F86A000AE0FEF781FAA0EB0A00A84256
:102BA00002D3681C02D0C6E7002DC4D0B4F86A0076
:102BB0000028D1D13DE02068416911F4604F2AD04E
:102BC0004169090409D5006B616E0860606E001DE3
:102BD0006066B4F86A00001F1AE0416901F4C04160
:102BE000B1F5005F0AD902980088616E0880606EB6
:102BF000801C6066B4F86A00801E09E090F830001E
:102C0000616E0870606E401C6066B4F86A00401E19
:102C1000A4F86A0009E0FEF741FAA0EB0A00A84216
:102C200002D3681C01D010E07DB1B4F86A0000281E
:102C3000C1D1204601F054F984F88190D4F8841071
:102C400084F8808079B1012016E7204601F048F928
:102C5000D4F8842084F8808042F48070C4F8840022
:102C600084F88190EFE7009806E72DE9FC5F0446C1
:102C7000006817468A4600211D4694F8802000F11E
:102C8000200B0191012A0DD04FF0010884F88080BB
:102C9000FEF704FA814694F881000026012804D04A
:102CA00002201EE00220BDE8FC9FBAF1000F17D001
:102CB000B7B1A1680320C4F85CA0A4F8607084F8E0
:102CC0008100C4F88460A4F862706666A4F8686045
:102CD000A4F86A60B1F5C02F6667266704D008E0E3
:102CE000012084F88060DEE72068016841F400611B
:102CF0000160206841686FF30F013943416020682B
:102D0000016841F0010101606068B0F5800F04D1F5
:102D10002068016841F400710160E0680F281AD84A
:102D20002CE02068416989070BD5E16D09680162D3
:102D3000E06D001DE065B4F86200401EA4F862007A
:102D400009E0FEF7ABF9A0EB0900A84202D3681C2A
:102D500001D005E025B1B4F862000028E1D183E09C
:102D6000204601F0BDF8D4F8841084F8806041F466
:102D70008071C4F8841084F881808DE007282CD8F5
:102D80006EE02068416989071CD5B4F862100129FA
:102D90000BD9E16B49B1E16D09680162E06D001D7D
:102DA000E065B4F86200801E09E0E06D0188ABF8D0
:102DB0000010E06D801CE065B4F86200401EA4F8CD
:102DC00062000AE0FEF76AF9A0EB0900A84202D30C
:102DD000681C02D0C4E7002DC2D0B4F862000028FD
:102DE000CFD141E02068416989072ED5B4F862103F
:102DF00003290CD9E16B402909D9E16D0968016209
:102E0000E06D001DE065B4F86200001F1AE0B4F840
:102E1000621001290CD9E16B51B1E06D0188ABF86A
:102E20000010E06D801CE065B4F86200801E09E0CF
:102E3000E16D097880F82010E06D401CE065B4F881
:102E40006200401EA4F862000AE0FEF727F9A0EB3A
:102E50000900A84202D3681C02D081E7002DB9D036
:102E6000B4F862000028BDD100224B46082120465C
:102E7000009501F093F828B1D4F8840040F02000C8
:102E8000C4F88400204601F02BF884F88180D4F83F
:102E9000840084F8806008B1012004E7019802E70B
:102EA0002DE9FF4F83B090F8801004460068012997
:102EB0004FF00001109F1D46019100F1200100F12B
:102EC000300093460291009014D04FF0010A84F82C
:102ED00080A0FEF7E3F8804694F881006368002143
:102EE00001282E464FF480020CD0934208D1A368EB
:102EF00033B903E0022007B0BDE8F08F042801D009
:102F0000022037E0049898B3BBF1000F31D07DB3B5
:102F100094F88100042802D0052084F881008946B5
:102F20000846C4F88410C4F864B0A4F86A50A4F841
:102F300068500499E165A4F86250A4F860502067D5
:102F40006067206841686FF30F0129434160206882
:102F5000016841F0010101606068904204D120687D
:102F6000016841F400710160E0680F282BD846E049
:102F7000FFE7012084F88010BDE7206841698907D8
:102F80000DD565B1E16D09680162E06D001DE06578
:102F9000B4F86200401EA4F86200B4F8625048F22F
:102FA00008022068416911420DD066B1006B616E64
:102FB0000860606E001D6066B4F86A00401EA4F8E8
:102FC0006A00B4F86A6055EA0600D6D1FEF766F8E2
:102FD000A0EB0800B84202D3781C02D1E1E0002F38
:102FE000FCD1204600F07CFFD4F8842084F8809047
:102FF00042F48070C4F8840084F881A0E9E00728D6
:103000004CD8CBE02068416989071CD5DDB1012D82
:103010000BD9E16B49B1E16D09680162E06D001DFA
:10302000E065B4F86200801E09E0E06D0188029856
:103030000180E06D801CE065B4F86200401EA4F8D9
:103040006200B4F862502068416911F4604F1BD0EF
:10305000D6B14169090409D5006B616E0860606EE4
:10306000001D6066B4F86A00801E09E000980088C0
:10307000616E0880606E801C6066B4F86A00401E55
:10308000A4F86A00B4F86A60FEF708F8A0EB08003C
:10309000B84202D3781C01D004E01FB155EA060003
:1030A000B0D17EE0204600F01BFFD4F8842084F8E5
:1030B000809042F48071C4F8841084F881A088E084
:1030C0002068416989072CD55DB3032D0CD9E16BCC
:1030D00040290BD9E16D09680162E06D001DE065D2
:1030E000B4F86200001F18E0012D0CD9E16B51B15A
:1030F000E06D018802980180E06D801CE065B4F805
:103100006200801E09E0E16D097880F82010E06D12
:10311000401CE065B4F86200401EA4F86200B4F8F8
:1031200062502068416911F4604F2CD05EB3416950
:10313000090409D5006B616E0860606E001D606651
:10314000B4F86A00001F1AE0416901F4C041B1F50A
:10315000005F0AD900980088616E0880606E801C4C
:103160006066B4F86A00801E09E090F83000616E75
:103170000870606E401C6066B4F86A00401EA4F8D7
:103180006A00B4F86A60FDF789FFA0EB0800B84256
:1031900002D3781C02D085E7002F83D055EA0600C1
:1031A0008ED10022434608212046009700F0F6FE0B
:1031B00028B1D4F8840040F02000C4F884002046F0
:1031C00000F08EFE84F881A0D4F8841084F88090FA
:1031D00009B101208FE601988DE6000003490A68D5
:1031E00022F4600202430A607047000004040058A1
:1031F000401EB0F1807F10B501D3012010BD4FF00B
:10320000E02460610F21601702F084F90020A061C2
:103210000721216110BD30B590F87C10012918D02C
:10322000012280F87C202421C0F880100022202474
:1032300050F8601B0B680D6823F0005325F0010562
:103240000D60426050F8601C0B600462027710460B
:1032500030BD022030BD704770B5044690F87C0048
:1032600001281DD0012284F87C202420C4F880008D
:1032700020680568026822F0010202602068826806
:1032800022F060620A438260204600F09BFF2268C1
:10329000202100201560C4F8801084F87C0070BDE7
:1032A000022070BD70B5044690F87C0001281DD046
:1032B000012284F87C202420C4F88000206805685E
:1032C000026822F0010202602068826822F06042F7
:1032D0000A438260204600F075FF2268202100200A
:1032E0001560C4F8801084F87C0070BD022070BDA9
:1032F00070477047704700002DE9F04103680446AD
:10330000002540F60F06D86919689A68304209D13D
:1033100086067DD501F0200602F080573E4377D027
:10332000E16E9EE0614E624F16400F4037436FD012
:10333000C70709D0CF0507D501271F62D4F8883009
:1033400043F00103C4F8883083070AD5D30708D0B7
:10335000276802233B62D4F8883043F00403C4F8A2
:10336000883043070AD5D30708D0276804233B6277
:10337000D4F8883043F00203C4F8883003070CD532
:1033800001F02003334308D0266808233362D4F8C1
:10339000883043F00803C4F8883003050BD54B018F
:1033A00009D526684FF400633362D4F8883043F0BF
:1033B0002003C4F88830D4F88830002B34D080063D
:1033C00009D501F0200002F08051084303D0E16EDE
:1033D00009B1204688472168D4F8880089684906E1
:1033E00002D410F0280F21D0204600F0BBFF206847
:1033F0008168490615D5816821F040018160A06F80
:1034000078B12C490165A06FFDF762FA002800E051
:1034100012E009D0A06F016D00E02046BDE8F04148
:1034200008472046FFF766FFBDE8F0812046FFF71A
:1034300061FFC4F88850F7E7C60209D5560207D5E0
:103440004FF4801018622046BDE8F041FFF751BFED
:10345000060609D501F0800602F40002164303D0E7
:10346000216F0029D9D1DFE742060DD54A060BD5D9
:103470001A682021204622F040021A60C4F8801009
:10348000256700F0B6F9CFE7020206D54A0004D559
:103490002046BDE8F041FFF72BBFC001C4D500298D
:1034A000C2DA2046BDE8F041FFF7D5BE01000010AA
:1034B000200100044F43000810B5040003D0D4F8E5
:1034C000800010B107E0012010BD002084F87C00CE
:1034D000204600F027F82420C4F880002068016806
:1034E00021F001010160204601F054F80128EBD0E1
:1034F000A06A10B1204600F097FE2068416821F4D0
:10350000904141602068816821F02A018160206833
:10351000016841F0010101602046BDE8104000F063
:10352000E7BE000010B586B0044614216846FCF7DB
:10353000CCFF17492068884228D11648016841F419
:1035400080210160006800F480200590114808384F
:10355000016841F00801016000680723022200F0C1
:103560000800059000204FF4407100916946CDE9B4
:103570000120CDE903030848FDF780FC0022272045
:103580001146FDF701FE2720FDF7F0FD06B010BD46
:1035900000480040E8440258000C025870B5D0F8CA
:1035A0008430202B6CD1B9B1B2B190F87C30012BB2
:1035B00066D08468012580F87C50002381652E0345
:1035C000C366B442A0F85C20A0F85E204FF0FF0173
:1035D00007D1046914B11DE0012070BD40F2FF1154
:1035E00018E04FF07F059CB1B4F1805F15D0A0F8D2
:1035F00060302221C0F88830C0F8841001688C68DF
:1036000044F001048C60416EB1F1005F0CD025E004
:10361000046934B9A0F86010EBE7016909B13F21F2
:10362000F8E7A0F86050E4E7B0F86810914215D8C8
:103630008168B14201D1016971B11249C16680F856
:103640007C3001680A6842F480720A600068816810
:1036500041F0805181600FE00B49EFE78168B14292
:1036600001D1016951B10949C16680F87C30006817
:10367000016841F490710160002070BD0449F3E7D6
:10368000022070BDF1440008ED4300089144000899
:103690008D4300082DE9F0410068214988423DD161
:1036A000204800F0E5FA20282FD11E494FF0FF0CEA
:1036B0004B788A78CE780F780C799519F8180544EC
:1036C00019482544C41CEDB28570F02F84F800C061
:1036D0001BD14979A94218D1012E04D0022E04D061
:1036E000032E03D118E0037000E0427000218170C6
:1036F000FF23007801220C4920700C48C91C00F0FF
:1037000019F80B480121FDF7B7FCBDE8F041054968
:1037100019220648FFF742BF0370E6E7BDE8F081D3
:10372000004800401C00002001000020EC010020A7
:10373000000402582DE9F8430446D0F880001F46E3
:1037400016460D46202852D1DDB1D6B194F87C0042
:1037500001284CD0012284F87C2021214FF0000860
:10376000C4F88880C4F880101834FDF797FC8146AF
:1037700054F8100CA687E687183CB0F5805F03D09C
:1037800004E00120BDE8F883206910B12E46002531
:1037900010E000260EE08021204601F003FDB8B9BC
:1037A000C6B116F8010B21688862B4F85600401EB5
:1037B000A4F85600B4F856004B464FF000020097AC
:1037C0000028E8D14FF04001204601F0EBFC38B171
:1037D0000320D7E735F8020B2168C0F30800E3E7C0
:1037E0002021C4F88010002084F87C80CAE70220E1
:1037F000C8E77047FEE700001848E12270B5164997
:10380000002401608021456801232C7040F2F455AA
:103810004668717041688A704168CC7041680C716B
:1038200041684C710E490372C1600E49C0E904152C
:10383000FDF7A2F908B1FDF749F8084834213438FA
:10384000FCF743FE054821224FF440313438026032
:10385000C0E9044170BD0000008002406C000020FF
:1038600060000430000004302DE9F04F87B01421CF
:103870006846FCF72AFE5648016841F010010160D5
:10388000016801F010010591016841F00401016037
:10389000016801F004010591016841F02001016017
:1038A000016801F020010591016841F0800101608B
:1038B000016801F080010591016841F0010101609A
:1038C000016801F001010591016841F00201016008
:1038D000016801F002010591016841F040010160B9
:1038E000016801F040010591016841F008010160A3
:1038F00000680022DFF8DC90032100F0080005904A
:103900004846FDF7C0FBDFF8D0A044F201070022D3
:1039100039465046FDF7B7FBDFF8C0B00022012161
:103920005846FDF7B0FB40F202482D4800224146C0
:10393000FDF7A9FB2B4800220221FDF7A4FB002480
:10394000694678100294CDE900042748FDF796FAFD
:103950000125694602260320CDE90005CDE902468E
:103960004846FDF78BFA00976946CDE90154504669
:103970000394FDF783FA00956946CDE90154584652
:103980000394FDF77BFACDF800806946CDE9015438
:1039900013480394FDF772FA144980208DE8130050
:1039A00069465846FDF76AFA11206946CDE90004D8
:1039B0000B480294FDF762FA00966946CDE901547E
:1039C00008480394FDF75AFA07B0BDE8F08F0000ED
:1039D000E04402580014025800040258001802582B
:1039E000000C025800100258000802580000111183
:1039F00070B5154807224FF48005124E00212C01A6
:103A0000C0E9021201614FF04053C0E90514C0E95A
:103A10000731416222018162C162C0E90D21C163A7
:103A2000016441648164C164016541658165C0E9E7
:103A30000065FEF701FF002803D0BDE87040FCF7E9
:103A400045BF70BD00340140DC00002070B5154852
:103A500007224FF48005124E00212C01C0E902120A
:103A600001614FF04053C0E90514C0E907314162DC
:103A700022018162C162C0E90D21C1630164416418
:103A80008164C164016541658165C0E90065FEF737
:103A9000D3FE002803D0BDE87040FCF717BF70BD0F
:103AA00000500140640100201848002110B5164C58
:103AB0000C224FF4E1330460C0E90131C160C0E978
:103AC00004128161C161016241628162FFF7F4FC0D
:103AD00008B1FCF7FBFE0D480021FFF7E3FB08B13E
:103AE000FCF7F4FE09480021FFF7B6FB08B1FCF72C
:103AF000EDFE0648FFF78FFB002803D0BDE810401D
:103B0000FCF7E4BE10BD000000480040EC010020BE
:103B10000E48002170B502230B4D0122C0E903318C
:103B200083610924C0E90721C0E90912C0E90B211A
:103B3000C0E90054FDF76EFB002803D0BDE87040DB
:103B4000FCF7C4BE70BD00000000084078020020F1
:103B5000FEE770471FB50FA10522D1E90001CDE9AD
:103B60000201302002A900F039F805226946102030
:103B700000F014F8002069460A5CA52A03D1401C15
:103B8000C0B20528F8D3052802D0012004B010BD2A
:103B90000020FBE7A5A5A5A5A5000000F7B50D4CE5
:103BA000154600220E4601212046FDF76CFA0A4810
:103BB000FF2301226946FFF758F80748FF232A46EA
:103BC0003146FEF72BFF012220461146FDF75BFA36
:103BD000FEBD0000001802586401002077B5104CAB
:103BE00083B015460E46002220460121FDF74BFA10
:103BF000FF2000900B48012301AA03A9FFF750F909
:103C00000848FF232A463146FFF72FF801222046B5
:103C10001146FDF738FA9DF8040006B070BD0000AB
:103C2000001802586401002013B50F4C0022012136
:103C300082B02046FDF727FAFF2000900B480123B1
:103C400001AA02A9FFF72CF90848FF23012203A9C2
:103C5000FFF70BF8012220461146FDF714FA9DF8F4
:103C6000040004B010BD00000018025864010020D8
:103C700070B5094D0022022104462846FDF703FADB
:103C800019222146A020FFF7A9FF01222846022180
:103C9000FDF7F9F9202070BD000C025870470000B4
:103CA0002DE9F047454D044689464FF0000A286843
:103CB000C04380070AD0414E283E306820F0806023
:103CC0003060FDF7EBF90746B04608E00120BDE89B
:103CD000F08700BFFDF7E2F9C01B022867D8D8F8CB
:103CE00000000001F6D4206829684FF4FE0721F493
:103CF0007C313E0241EA00302860207AA389B4F882
:103D000004C040022D4D2D495B1E227CACF1010CFC
:103D10001035091DA0F5007080B2521ECCF3080CBE
:103D200007EA034340EA0C00184306EA0262104324
:103D300028600868626920F0C000104308600A68C3
:103D4000A06922F0200202430A60281D0A6822F0BE
:103D500010020A6002684FF6F873E4699A4342EA77
:103D6000C40202600868B9F1000F40F010020A6056
:103D700011D00868B9F1010F11D040F400100860AB
:103D8000D8F80000444640F08060C8F80000FDF715
:103D900085F905460DE0086840F40020EFE740F49F
:103DA0008010ECE7FDF77AF9401B022801D90320C7
:103DB0008DE720680001F5D5504688E72844025871
:103DC0002DE9F047454D044689464FF0000A286822
:103DD000C04380070AD0414E283E306820F0805012
:103DE0003060FDF75BF90746B04608E00120BDE80A
:103DF000F08700BFFDF752F9C01B022867D8D8F83A
:103E000000008000F6D4208829684FF4FE0721F0D6
:103E10007C713E0241EA00502860207AA389B4F800
:103E200004C040022D4D2D495B1E227CACF1010CDB
:103E30001835091DA0F5007080B2521ECCF3080C95
:103E400007EA034340EA0C00184306EA0262104303
:103E500028600868626920F44060104308600A68BE
:103E6000A06922F4007202430A60281D0A6822F445
:103E700080720A6002684FF6F873E4699A4342EA76
:103E8000C40202600868B9F1000F40F480720A6051
:103E900011D00868B9F1010F11D040F080700860AE
:103EA000D8F80000444640F08050C8F80000FDF704
:103EB000F5F805460DE0086840F48000EFE740F4AF
:103EC0000000ECE7FDF7EAF8401B022801D90320C7
:103ED0008DE720688000F5D5504688E728440258D1
:103EE00010B5026840F26F335169946944F00804D8
:103EF00094610268946944F0100494610268146843
:103F000024F001041460026814699C43146102687F
:103F1000936823F44043936090F88120042A0CD0E6
:103F20008A060AD5D0F8842042F08002C0F88420A6
:103F30000268936943F02003936190F88120032A7B
:103F40000CD04A060AD5D0F8842042F00402C0F80A
:103F500084200268936943F0400393618A050AD57F
:103F6000D0F8842042F00102C0F8842002689369EE
:103F700043F400739361C9050AD5D0F8841041F069
:103F80000801C0F8841001688A6942F480728A616D
:103F90000021A0F86210A0F86A1010BD2DE9F041D0
:103FA000984616460D460746069C09E0FDF776F84A
:103FB000A0EB0800A04202D3601C01D00BE054B17A
:103FC0003868406935EA000007D00020B042EDD0E3
:103FD0000020BDE8F0810320FBE70120F6E77047F1
:103FE000FDF762B870B5CCB04C212FA8FCF76DFA84
:103FF000202142A8FCF769FABC216846FCF765FA63
:104000000220FDF7BFF9234800242349026842F447
:104010004042026002680A6842F001020A600968D0
:1040200001F001014A9101688904FCD50220389011
:104030000121C20378231425CDE92F1239AA0C26B9
:1040400082E80B00CDE93C053E902FA8CDE93F6406
:104050004194FEF77BF9402008230501CDE9453066
:1040600042ABCDE9470549903F21032283E8160082
:10407000042142A8FDF772FF084818941D94C1045A
:10408000219100906846FDF71BFBFDF7A5F94CB0A8
:1040900070BD0000184802582C040058022004008B
:1040A000214A30B5214914680020204B44F47004A3
:1040B000146010330A681E4D42F001020A60186055
:1040C0000A681A4B2A400A6018331C1D251D174A1E
:1040D000186028322060131D28601C1D251D1060EB
:1040E0002A1D1860131D20601C1D2860251D1060EE
:1040F0001860206028600A680C4B0E4C22F4802265
:1041000060330A60186020686FF30F00B0F1005F41
:1041100003D209490120C1F808014FF000600249AB
:104120008039086030BD000088ED00E0004402588E
:104130007FEDF6EA0010005C0080005110B51D4CC8
:10414000002202212046FCF79EFF03210846FFF7CC
:104150006BFD194905223020FFF740FD1649052265
:104160002A20491DFFF73AFD19213120FFF75CFD98
:1041700000212120FFF758FD00212220FFF754FDE8
:1041800000212420FFF750FD0C4801782520FFF77F
:104190004BFD0B4801782620FFF746FD0E2120201D
:1041A000FFF742FD01222046BDE810400221FCF746
:1041B0006ABF0000000C0258A25500080100002050
:1041C000000000203FB514A1D1E9002314A1CDE9DE
:1041D0000023D1E90021CDE90221416EB9B1016886
:1041E00002AC8A688968C2F34262490F1DF8015027
:1041F000615CED00B5FBF1F1A0F86A101DF802104A
:10420000A25CC900B1FBF2F1A0F868103FBD01212A
:10421000A0F86A10F8E7000001010103070100009F
:10422000080402040801010190F82810C90706D00B
:104230000168C36A4A6822F400321A434A6090F85F
:104240002810890706D50168036B4A6822F480327A
:104250001A434A6090F82810490706D50168436B55
:104260004A6822F480221A434A6090F8281009070D
:1042700006D50168836B4A6822F400421A434A60FB
:1042800090F82810C90606D50168C36B8A6822F425
:1042900080521A438A6090F82810890606D5016872
:1042A000036C8A6822F400521A438A6090F828103E
:1042B000490611D50168436C4A6822F480121A43FA
:1042C0004A60416CB1F5801F06D10168836C4A6871
:1042D00022F4C0021A434A6090F82810090606D555
:1042E0000168C26C486820F40020104348607047A1
:1042F000F8B500260446C0F88860FCF7CFFE0546F6
:1043000020686FF07E470068000708D500222B4622
:104310004FF400112046009700F044FF60B9206878
:10432000006840070AD500222B464FF48001204642
:10433000009700F037FF08B10320F8BD2020C4F833
:10434000800084F87C60C4F884000020F8BD10B5BB
:10435000806B0021A0F85E10A0F85610FEF7CAFF8F
:1043600010BD000030B501682023074D00240A6805
:1043700022F490720A6001688A682A408A60C0F854
:104380008430C46630BD0000FEFFFFEF10B5D0F8EA
:104390008410B0F860202229016804D0886940F0B8
:1043A0000800886110BD496A836D11401980816DD4
:1043B000891C8165B0F85E10491EA0F85E10B0F847
:1043C0005E100029EED10168202200230C6824F43D
:1043D00090740C6001688C6824F001048C60C0F853
:1043E0008420C366FFF756F910BD00002DE9F041A7
:1043F0000446D0F884002228B4F8606006D0206813
:10440000816941F008018161BDE8F081B4F868502C
:1044100023E02068A16D406A30400880A06D801CB8
:10442000A065B4F85E00401EA4F85E00B4F85E001B
:1044300088B92068202214490023076827F4807770
:104440000760206887680F408760C4F88420204692
:10445000E366FFF71FF96D1EADB2002DD9D1B4F898
:104460005E000028D0D0B4F868108142CCD9206812
:10447000816821F0805181600448E066206801680D
:1044800041F020010160BFE7FEFFFFEF8D43000810
:1044900010B5D0F88410B0F860202229016804D04B
:1044A000886940F00800886110BD496A836D114039
:1044B0001970816D491C8165B0F85E10491EA0F825
:1044C0005E10B0F85E100029EED1016820220023B2
:1044D0000C6824F490740C6001688C6824F001046A
:1044E0008C60C0F88420C366FFF7D4F810BD0000CC
:1044F0002DE9F0410446D0F884002228B4F8606029
:1045000006D02068816941F008018161BDE8F08131
:10451000B4F8685023E02068A16D406A304008700C
:10452000A06D401CA065B4F85E00401EA4F85E00BB
:10453000B4F85E0088B92068202214490023076877
:1045400027F480770760206887680F408760C4F889
:1045500084202046E366FFF79DF86D1EADB2002D66
:10456000D9D1B4F85E000028D0D0B4F868108142E8
:10457000CCD92068816821F0805181600448E066D0
:104580002068016841F020010160BFE7FEFFFFEFF6
:10459000914400082DE9F04F04468068F94E87B039
:1045A0002168D4E90457E269636E28430D68174314
:1045B0003843F54A03434FF0000835401D430D6072
:1045C0002068E368416821F4405119434160236841
:1045D000A069934201D0216A08439D68EB4FEC4EDD
:1045E000EC493D4005439D602068656AC36A23F03D
:1045F0000F032B43C3622068B0420ED1096801F05B
:104600003801182973D047DCB9B3082979D01029AB
:104610006FD178E028297ED17BE0DF4B984209D129
:10462000096801F00701062975D2DFE801F0546A34
:104630006C6E7072D94B984209D1096801F007017C
:10464000062968D2DFE801F0475D5F616365D44BFE
:10465000984209D1096801F0070106295BD2DFE819
:1046600001F03A5052545658CE4B98420BD109683B
:1046700001F0070106294ED200E010E0DFE801F06A
:104680002B4143454749C84B98420AD1096801F07C
:104690003801182939D0B7DD2029BBD137E00127EF
:1046A0003AE0C24B984209D1096801F00701062996
:1046B00031D2DFE801F01026282A2C2EBC4B98427C
:1046C0000BD1096801F00701062924D2DFE801F0C7
:1046D00003191B1D1F2100271EE090421BD1AD496D
:1046E000091D096801F00701062914D202E00CE057
:1046F00007E010E0DFE801F0030507090B0D0227D2
:104700000AE0042708E0082706E0102704E0202735
:1047100002E0402700E08027DFF898A2DFF898B297
:1047200090424FF480754FF000097AD1102F51D08C
:1047300006DC022F09D0042F27D0082F72D12DE0DC
:10474000202F70D0402F6DD1F0E0FCF763FE0146C2
:10475000606A1FE0012827D0022827D0032827D02D
:10476000042827D0052827D0062827D0072827D0B7
:10477000082827D0092827D00A2827D00B2827D097
:104780000AE000BFB1FBF0F07EE06846FCF754FEA3
:10479000606A01990028DDD10120F3E703A8FCF746
:1047A000EDFE606A0499F5E70220EBE70420E9E7F3
:1047B0000620E7E70820E5E70A20E3E70C20E1E729
:1047C0001020DFE72020DDE74020DBE78020D9E76D
:1047D0002846D7E7DBF8000059468006606A39D5DD
:1047E0000968C1F3C1012AFA01F2A8B101281BD05E
:1047F00002281BD003281BD004281BD005281BD05F
:1048000006281BD007281BD008281BD009281BD03E
:104810000A281BD00B281BD05FF00100B2FBF0F080
:1048200032E033E2A2E050E00220F7E70420F5E7AF
:104830000620F3E70820F1E70A20EFE70C20EDE778
:104840001020EBE72020E9E74020E7E78020E5E7BC
:104850002846E3E7A8B1012821D0022821D0032867
:1048600021D0042821D0052821D0062821D00728CE
:1048700021D0082821D0092821D00A2821D00B28AE
:1048800021D00120BAFBF0F000286ED0666806EB5C
:10489000460181426AD8B0EB063F67D89DE002200E
:1048A000F0E70420EEE70620ECE70820EAE70A201C
:1048B000E8E70C20E6E71020E4E72020E2E74020CC
:1048C000E0E78020DEE72846DCE7606AA8B101283F
:1048D00016D0022816D0032816D0042816D0052892
:1048E00016D0062816D0072816D0082816D0092872
:1048F00016D00A2816D00B2816D001202F4941E7E0
:104900000220FBE70420F9E70620F7E70820F5E797
:104910000A20F3E70C20F1E71020EFE72020EDE775
:104920004020EBE78020E9E72846E7E7606AA8B186
:10493000012818D002281AD003281AD004281AD027
:1049400005281AD006281AD0072839D0082839D0C7
:10495000092839D00A2839D00B2839D05FF0010056
:104960004FF400410EE70220FAE77CE232E0042037
:10497000F6E70620F4E70820F2E70A20F0E70C202B
:10498000EEE70000F369FFCF000C0058FFF4FF11C1
:1049900000100140544402580044004000480040C8
:1049A000004C0040005000400014014000780040DE
:1049B000007C00400090D0030044025800093D00F4
:1049C0001020CDE72020CBE74020C9E78020C7E7B3
:1049D0002846C5E74FF0010845E2102F7FD023DCC1
:1049E000022F4ED0042F75D0082FF3D103A8FCF767
:1049F000C5FD0499606AA8B1012846D0022846D0B6
:104A0000032846D0042846D0052846D0062846D09C
:104A1000072846D0082846D0092846D00A2846D07C
:104A20000B2845D0012543E0202F7DD0402FD1D148
:104A3000606AA8B1012878D0022877D0032876D000
:104A4000042875D0052874D0062873D0072872D0A2
:104A5000082871D0092870D00A286FD00B2800D000
:104A600001254F4600232A464FF400400021FBF762
:104A700083FC02467008130E1202101843EA01214B
:104A80006AE0FCF7C7FC0146B4E7022510E0042504
:104A90000EE006250CE008250AE00A2508E00C25B2
:104AA00006E0102504E0202502E0402500E08025F6
:104AB0004E4600232A4608461946FBF75DFC62680D
:104AC0000902030241EA106150081818714145E0DB
:104AD00005E0FFE76846FCF7AFFC01998AE7DBF8E1
:104AE00000105846890656D50068C0F3C1002AFA5E
:104AF00000F1606AA8B1012839D0022839D0032812
:104B000039D0042839D0052839D0062839D00728CB
:104B100039D0082839D0092839D00A2839D00B28AB
:104B200000D001252A460AE067E099E09AE09BE080
:104B30009CE09DE09EE09FE0A0E0A1E0A2E00023D9
:104B40004F4608461946FBF717FC09020346720850
:104B50000002801841EA1361324679410023FBF7D5
:104B60000BFCFA49A0F540728A426ED932E7022561
:104B7000D8E70425D6E70625D4E70825D2E70A2595
:104B8000D0E70C25CEE71025CCE72025CAE7402545
:104B9000C8E78025C6E7606AA8B1012819D00228B5
:104BA00019D0032819D0042819D0052819D00628AF
:104BB00019D0072819D0082819D0092819D00A288F
:104BC00019D00B2800D001254F4600232A46504615
:104BD0004CE70225F8E70425F6E70625F4E7082563
:104BE000F2E70A25F0E70C25EEE71025ECE7202593
:104BF000EAE74025E8E78025E6E7606AA8B10128F2
:104C000019D0022819D0032819D0042819D0052852
:104C100019D006281AD007281AD008281AD009282F
:104C20001AD00A281AD00B2800D00125C848002322
:104C30004F462A461AE70225F8E70425F6E7062537
:104C4000F4E70825F2E70A25F0E71DE00C25EDE77B
:104C50001025EBE72025E9E74025E7E78025E5E794
:104C60000225FEE60425FCE60625FAE60825F8E618
:104C70000A25F6E60C25F4E61025F2E62025F0E6F6
:104C80004025EEE68025ECE62168EBE0E0694FF494
:104C900000414FF6EF7688426FD1082F65D00BDCCC
:104CA0006FB3012F5CD0042F7FF460AF6846FCF730
:104CB000C3FB606A01995DE0102F5FD0202F7DD08B
:104CC000402FF1D1606AA8B1012878D0022877D0AE
:104CD000032876D0042875D0052874D0062873D010
:104CE000072872D0082871D0092870D00A286FD000
:104CF0000B2800D001256068B1FBF5F1A0E0FDF7BD
:104D000065FA2FE0012815D0022815D0032815D008
:104D1000042815D0052815D0062815D0072815D049
:104D2000082815D0092815D00A2815D00B2814D02A
:104D3000012512E0022510E004250EE006250CE016
:104D400008250AE00A2508E00C2506E0102504E005
:104D5000202502E0402500E08025B1FBF5F13EE092
:104D6000FDF746FA0146606A04E003A8FCF706FC7A
:104D7000606A04990028DBD0C4E7D8E0DBF80000C3
:104D800059468006606A40D50968C1F3C1012AFA14
:104D900001F208B3012824D0022824D0032824D00B
:104DA000042824D0052824D0062824D0072824D07D
:104DB000082824D0092824D00A280AE074E0A2E0B8
:104DC000A3E0A4E0A5E0A6E0A7E0A8E0A9E0AAE0AF
:104DD000ABE018D00B2800D00125B2FBF5F16068DC
:104DE0002EE00225F9E70425F7E70625F5E7082573
:104DF000F3E70A25F1E70C25EFE71025EDE720257D
:104E0000EBE74025E9E78025E7E7A8B1012837D09F
:104E1000022837D0032837D0042837D0052837D0C8
:104E2000062837D0072837D0082837D0092837D0A8
:104E30000A2837D00B2800D001256068BAFBF5F1AD
:104E4000490001EB5001B1FBF0F080B2A0F110017C
:104E5000B1423FF68BAE4FF6F0732168C0F34202C9
:104E600018401043C8600121A4F86A104046A4F815
:104E70006810C4F86C90C4F8709007B0BDE8F08F6B
:104E80000225DAE70425D8E70625D6E70825D4E782
:104E90000A25D2E70C25D0E71025CEE72025CCE760
:104EA0004025CAE78025C8E7606AA8B1012816D066
:104EB000022816D0032816D0042816D0052816D0AC
:104EC000062816D0072816D0082816D0092816D08C
:104ED0000A2816D00B2800D001251D490BE7022512
:104EE000FBE70425F9E70625F7E70825F5E70A2596
:104EF000F3E70C25F1E71025EFE72025EDE7402546
:104F0000EBE78025E9E70225F5E60425F3E606252B
:104F1000F1E60825EFE60A25EDE60C25EBE610257F
:104F2000E9E62025E7E64025E5E68025E3E6082FCB
:104F30006AD00FDC8FB3012F61D0042F7FF416AE3F
:104F40006846FCF779FA606A019962E0FFFC0F009D
:104F500000093D00102F5FD0202F7DD0402FEDD1D4
:104F6000606AA8B1012878D0022877D0032876D0CB
:104F7000042875D0052874D0062873D0072872D06D
:104F8000082871D0092870D00A286FD00B2800D0CB
:104F900001256068B1FBF5F1A0E0FFE7FDF716F928
:104FA0002FE0012815D0022815D0032815D0042899
:104FB00015D0052815D0062815D0072815D00828A3
:104FC00015D0092815D00A2815D00B2814D0012592
:104FD00012E0022510E004250EE006250CE008256D
:104FE0000AE00A2508E00C2506E0102504E020254B
:104FF00002E0402500E08025B1FBF5F13DE0FDF742
:10500000F7F80146606A04E003A8FCF7B7FA606AA3
:1050100004990028DBD0C4E7DBF80000594680067D
:10502000606A40D50968C1F3C1012AFA01F208B3E8
:10503000012824D0022824D0032824D0042824D0F6
:10504000052824D0062824D0072824D0082824D0D6
:10505000092824D00A280AE05FE08DE08EE08FE086
:1050600090E091E092E093E094E095E096E018D033
:105070000B2800D00125B2FBF5F160682EE0022577
:10508000F9E70425F7E70625F5E70825F3E70A25FC
:10509000F1E70C25EFE71025EDE72025EBE74025AC
:1050A000E9E78025E7E7A8B1012822D0022822D02D
:1050B000032822D0042822D0052822D0062822D076
:1050C000072822D0082822D0092822D00A2822D056
:1050D0000B2800D001256068BAFBF5F101EB500107
:1050E000B1FBF0F080B2A0F11001B1427FF6CCAD7F
:1050F00070E40225EFE70425EDE70625EBE7082538
:10510000E9E70A25E7E70C25E5E71025E3E7202591
:10511000E1E74025DFE78025DDE7606AA8B10128E7
:1051200016D0022816D0032816D0042816D0052839
:1051300016D0062816D0072816D0082816D0092819
:1051400016D00A2816D00B2800D00125144920E7D4
:105150000225FBE70425F9E70625F7E70825F5E72B
:105160000A25F3E70C25F1E71025EFE72025EDE709
:105170004025EBE78025E9E702250AE7042508E753
:10518000062506E7082504E70A2502E70C2500E7BF
:105190001025FEE62025FCE64025FAE68025F8E607
:1051A00000093D002DE9F0479A4617460E46044691
:1051B000089D4FF000094FF0200839E0681C37D0F7
:1051C000FBF76CFFA0EB0A00A84222D80DB32068C1
:1051D000016849072CD5C069C043000528D423685D
:1051E0004FF40061196221680B6823F4D0730B60DF
:1051F00021688B6823F001038B60C4F88080C4F8B9
:105200008480C4F8888000BF032084F87C90BDE8C7
:10521000F08721680B6823F4D0730B6021688B68DA
:1052200023F001038B60C4F88080C4F88480EBE72E
:105230002068C06936EA000004D00020B842BDD022
:105240000020E4E70120F9E70148FEF755B8000027
:10525000EC01002070B5044606990A9E049D0129C0
:105260000D9816D0E06840F04000E060204600F065
:105270002DF8A16B26B321F48031A163012D07D154
:10528000A16841F00601A160A16841F02001A16080
:1052900070BDA26B01280C4922F48030A063E06845
:1052A00000EA0100E060E06820F44010E06003D113
:1052B000E06840F48010E060204600F007F8DDE789
:1052C00041F48031D9E70000BFFFBDFF0C49012246
:1052D00002E0521C8A420BD80369002BF9DA0369F9
:1052E000012243F00103036104E0521C8A4201D908
:1052F000032070470369DB07F7D1002070470000E7
:10530000400D030010B5D0F8041841F00201C0F8B8
:1053100004180320FBF71EFC002010BD2DE9F04F00
:105320000E4604460021DDF824B00D46109F0846C5
:10533000DDF82C2004EB800CCCF80411401C0F2865
:10534000F8D32046AFB1806B40F4001CC4F838C0DD
:1053500088460846C4F8000ED4F80008012A214601
:10536000C4F800081BD00846D1F8001841F003012A
:105370001BE0D0F8040840F0020CC4F804C8A06B8D
:1053800020F4001CC4F838C0206840F0400CC4F879
:1053900000C0206840F0800CC4F800C0D8E7084680
:1053A000D1F800180BB141F00101C0F8001810212C
:1053B00000F086F800B10125204600F071F800B138
:1053C000012540464FF000694FF67F334FF0904A79
:1053D000C4F81088C4F81488C4F81C88002114E0AC
:1053E00004EB4112D2F800C9BCF1000F06DA11B18A
:1053F000C2F800A904E0C4F8009901E0C2F800096D
:10540000C2F81009C2F80839491C8E42E8D80021B8
:1054100015E000BF04EB4112D2F800CBBCF1000F45
:1054200006DA11B1C2F800AB04E0C4F8009B01E059
:10543000C2F8000BC2F8100BC2F8083B491C8E42A0
:10544000E8D8D4F81038BBF1000F6FF0804223F495
:105450008073C4F81038A061626103D1A06940F084
:105460001000A061A069094A0C9940EA0200A061FD
:1054700019B1A06940F00800A061012F03D1A06913
:1054800003490843A0612846BDE8F08F00383C80FE
:1054900004000040816821F0010181600020704714
:1054A000064A102101610021491C914201D90320C3
:1054B00070470369DB06F7D400207047400D0300F6
:1054C0002023074A43EA811303610021491C9142CA
:1054D00001D90320704703699B06F7D40020704769
:1054E000400D030010B5C268012922F0C042C2601D
:1054F00002D029B1012010BDC16841F0005102E085
:10550000C16841F08041C1603220FBF723FB0020DD
:1055100010BDFEE7090700284FEA116104DB00F126
:10552000E02080F80014704700F00F0000F1E02048
:1055300080F8141D70470000FBF7BEFDFEF752FD1A
:10554000FEF792F9FEF758F9FEF752FAFEF77EFAE7
:10555000FEF7AAFAFEF7DCFA0C4D4FF480444FF444
:10556000FA6606E021462846FBF786FD3046FBF743
:10557000F1FAFEF7EFFA0028F4D1FEF7DFFD044957
:1055800019220448FEF70AF8FEE70000000402585A
:105590001C000020EC0100204FF04070E1EE100AEA
:1055A0007047009845711011A95682210000000033
:1055B000010203040102030406070809DC55000880
:1055C000000000201C000000D4020008F85500086C
:1055D0001C000020C40C0000F0020008065A5A000B
:1055E00000000000010000001000000000000000AA
:0855F0000090D0030090D003ED
:040000050800029954
:00000001FF
